:020000040800F2
:1000000000000120A5530008391500083B15000821
:100010003D1500083F1500084115000800000000CC
:100020000000000000000000000000005151000826
:100030004315000800000000F15100083552000887
:10004000ED530008ED530008ED530008ED53000890
:10005000ED530008ED530008ED530008ED53000880
:10006000ED530008ED530008ED530008ED53000870
:10007000ED53000845150008ED530008551500081C
:1000800065150008ED530008ED530008ED53000816
:10009000ED530008ED530008ED530008ED53000840
:1000A000ED530008ED530008ED530008ED53000830
:1000B000ED530008ED530008ED530008ED53000820
:1000C000ED530008ED530008ED530008ED53000810
:1000D000ED530008751500088515000895150008F2
:1000E000ED530008ED530008ED530008ED530008F0
:1000F000A5150008ED530008ED530008ED53000866
:10010000ED530008ED530008ED530008ED530008CF
:10011000ED530008ED530008ED530008ED530008BF
:10012000ED530008ED530008ED530008ED530008AF
:1001300000000000000000000000000000000000BF
:1001400000000000000000000000000000000000AF
:10015000000000000000000000000000000000009F
:10016000000000000000000000000000000000008F
:10017000000000000000000000000000000000007F
:10018000000000000000000000000000000000006F
:10019000000000000000000000000000000000005F
:1001A000000000000000000000000000000000004F
:1001B000000000000000000000000000000000003F
:1001C000000000000000000000000000000000002F
:1001D000000000000000000000000000000000001F
:0401E0005FF8E0F1F3
:1001F00010B5054C237833B9044B13B10448AFF361
:1002000000800123237010BD740000200000000056
:100210000864000808B5034B1BB103490348AFF35A
:10022000008008BD0000000078000020086400087D
:100230004FF0FF0C1CEAD0521EBF1CEAD15392EAC9
:100240000C0F93EA0C0F6FD01A4480EA010C4002A5
:1002500018BF5FEA41211ED04FF0006343EA5010FF
:1002600043EA5111A0FB01310CF00040B1F5000F41
:100270003EBF490041EAD3715B0040EA010062F1F0
:100280007F02FD2A1DD8B3F1004F40EBC25008BFDA
:1002900020F00100704790F0000F0CF0004C08BFF8
:1002A00049024CEA502040EA51207F3AC2BFD2F1C5
:1002B000FF0340EAC250704740F400004FF00003D3
:1002C000013A5DDC12F1190FDCBF00F0004070470D
:1002D000C2F10002410021FA02F1C2F1200200FA4B
:1002E00002FC5FEA310040F1000053EA4C0308BF12
:1002F00020EADC70704792F0000F00F0004C02BF63
:10030000400010F4000F013AF9D040EA0C0093F0DD
:10031000000F01F0004C02BF490011F4000F013B37
:10032000F9D041EA0C018FE70CEAD15392EA0C0FA5
:1003300018BF93EA0C0F0AD030F0004C18BF31F010
:10034000004CD8D180EA010000F00040704790F0E6
:10035000000F17BF90F0004F084691F0000F91F08A
:10036000004F14D092EA0C0F01D142020FD193EA50
:100370000C0F03D14B0218BF084608D180EA0100D8
:1003800000F0004040F0FE4040F40000704740F0B4
:10039000FE4040F44000704780F0004002E000BFA3
:1003A00081F0004142001FBF5FEA410392EA030F60
:1003B0007FEA226C7FEA236C6AD04FEA1262D2EBAA
:1003C0001363C1BFD218414048404140B8BF5B42AF
:1003D000192B88BF704710F0004F40F4000020F048
:1003E0007F4018BF404211F0004F41F4000121F05E
:1003F0007F4118BF494292EA030F3FD0A2F10102A8
:1004000041FA03FC10EB0C00C3F1200301FA03F1E5
:1004100000F0004302D5494260EB4000B0F5000F08
:1004200013D3B0F1807F06D340084FEA310102F1C7
:100430000102FE2A51D2B1F1004F40EBC25008BF79
:1004400020F0010040EA03007047490040EB000043
:10045000013A28BFB0F5000FEDD2B0FA80FCACF144
:10046000080CB2EB0C0200FA0CF0AABF00EBC25071
:1004700052421843BCBFD0401843704792F0000F5F
:1004800081F4000106BF80F400000132013BB5E7B2
:100490004FEA41037FEA226C18BF7FEA236C21D028
:1004A00092EA030F04D092F0000F08BF084670478D
:1004B00090EA010F1CBF0020704712F07F4F04D15B
:1004C000400028BF40F00040704712F100723CBF6E
:1004D00000F50000704700F0004343F0FE4040F498
:1004E000000070477FEA226216BF08467FEA236356
:1004F0000146420206BF5FEA412390EA010F40F441
:10050000800070474FF0000304E000BF10F000438C
:1005100048BF40425FEA000C08BF704743F0964373
:1005200001464FF000001CE050EA010208BF70478E
:100530004FF000030AE000BF50EA010208BF704715
:1005400011F0004302D5404261EB41015FEA010C2A
:1005500002BF84460146002043F0B64308BFA3F122
:100560008053A3F50003BCFA8CF2083AA3EBC25304
:1005700010DB01FA02FC634400FA02FCC2F1200223
:10058000BCF1004F20FA02F243EB020008BF20F05A
:100590000100704702F1200201FA02FCC2F12002C0
:1005A00050EA4C0021FA02F243EB020008BF20EAB5
:1005B000DC7070474FF0FF3C06E000BF4FF0010CCD
:1005C00002E000BF4FF0010C4DF804CD4FEA4002AD
:1005D0004FEA41037FEA226C18BF7FEA236C11D0F7
:1005E00001B052EA530C18BF90EA010F58BFB2EBAA
:1005F000030088BFC81738BF6FEAE17018BF40F02A
:10060000010070477FEA226C02D15FEA402C05D1DD
:100610007FEA236CE4D15FEA412CE1D05DF8040B62
:10062000704700BF844608466146FFE70FB5FFF7F5
:10063000C9FF002848BF10F1000F0FBD4DF808EDAD
:10064000FFF7F4FF0CBF012000205DF808FB00BF9E
:100650004DF808EDFFF7EAFF34BF012000205DF8F8
:1006600008FB00BF4DF808EDFFF7E0FF94BF012045
:1006700000205DF808FB00BF4DF808EDFFF7D2FF42
:1006800094BF012000205DF808FB00BF4DF808ED85
:10069000FFF7C8FF34BF012000205DF808FB00BF52
:1006A00042000ED2B2F1FE4F0BD34FF09E03B3EBDC
:1006B000126209D44FEA002343F0004323FA02F008
:1006C00070474FF00000704712F1610F01D14202F4
:1006D00002D14FF0FF3070474FF00000704700BF6D
:1006E00000B583B0002301930368374A934208D0D2
:1006F000364A934243D0364A93424BD003B05DF81A
:1007000004FB344B197001AB0122334909683348AB
:1007100004F07EFB58B1019B4BB14FF0E0234FF04A
:100720008052C3F8042DBFF34F8FBFF36F8F0622A3
:100730002B492C4802F0F8FEE0E701330A2B05DCD8
:10074000294AD25C552AF8D1284A1370274B1B78C6
:100750000B2B16D801AB0122254909681F4804F06C
:1007600057FB88B1019B7BB14FF0E0234FF08052E3
:10077000C3F8042DBFF34F8FBFF36F8F04E0002346
:10078000DCE71C4804F06EFE0F2217491A4802F0FD
:10079000CBFEB3E701AB02220F4909680F4804F012
:1007A00037FB58B1019B4BB14FF0E0234FF0805223
:1007B000C3F8042DBFF34F8FBFF36F8FC8220F49CB
:1007C0000F4802F0B1FE99E70038014000440040B4
:1007D00000480040720100204C02002055370008FC
:1007E0006C010020840400205C01002058010020DE
:1007F0004802002084640008C80400209000002003
:100800000C05002030B591B02822002106A804F084
:1008100021FE00240194029403940494059401227F
:1008200006924FF4803307930A9202250D950E939A
:100830004FF4E0130F9306A800F054FF0F23019329
:10084000029503944FF4806304930594294601A80C
:1008500001F088F911B030BD08B500F009FFFFF7CD
:10086000D1FF00F05FF800F0B7FA00F0A3FC00F051
:10087000DDFA00F00DFB00F03DFB00F06DFB00F039
:100880000FFD00F027FD00F03FFD0622134914483C
:1008900002F04AFE0F221349134802F045FEC82217
:1008A0001249134802F040FE3C21124802F0FEF9C2
:1008B0003C21114802F074FA3C21104802F070FA11
:1008C0003C210F4802F06CFA3C210E4802F068FA15
:1008D00000F0EAF904F0B6FAFEE700BF6C01002070
:1008E000840400205C010020C80400209000002047
:1008F0000C0500205002002098020020E002002099
:10090000280300207003002008B50268034B9A42B8
:1009100000D008BD00F0BEFEFBE700BF0034014080
:10092000704700002DE9F04188B00024049405943C
:1009300006940794254B9A6942F004029A619A69D9
:1009400002F004020092009A9A6942F008029A6149
:100950009A6902F008020192019A9A6942F04002F3
:100960009A619A6902F040020292029A9A6942F0F0
:1009700020029A619B6903F020030393039BDFF835
:100980005080224640F2C731404601F005FB114D30
:1009900022468021284601F0FFFA40F2C733049333
:1009A0000127059706940226079604A9404601F000
:1009B000D3F98023049305970694079604A9284643
:1009C00001F0CAF908B0BDE8F08100BF0010024094
:1009D000000C01400018014000B583B003E00B4B50
:1009E00000221A609A804FF0FF3300930023012207
:1009F00003210748006802F0E3FD0128EFD0022838
:100A0000F1D1024B00221A609A80ECE76C010020C1
:100A10004C02002000B583B04FF0FF330093002359
:100A2000012211461248006802F0CAFD0128F3D1E4
:100A3000104B1B78104AD25C552AEDD15A1C0E4936
:100A40008A5C532A0FD103F108010B4A505C07332B
:100A5000D35C43EA0020FFF759FD0849FFF7E8FBA4
:100A6000074B1860E4E7074804F0FCFCE0E700BF30
:100A700048020020580100205C0100204D00B43BDA
:100A800088010020BC64000808B5002003F080FB4A
:100A9000012004F0F6F9F8E708B5002003F078FB30
:100AA000012004F0EEF9F8E7F8B504460F46866930
:100AB000C1693046FFF776FC256A2946FFF772FCCC
:100AC000206006F1004629462846FFF76BFC0146E8
:100AD0003046FFF765FC6060A56007B9F8BD0023EC
:100AE000E36023616361F9E7F8B504460D460068E9
:100AF000FFF79EFB0646E76839466068FFF798FBFC
:100B000001463046FFF74EFC06462169A068FFF714
:100B10008FFB01463046FFF745FC6169FFF742FC59
:100B200006462761E5600949FFF7A6FD18B1074BA6
:100B300063616069F8BD06493046FFF793FD10B167
:100B4000034B6361F5E76661F3E700BF00803B4557
:100B500000803BC5F0B583B003F0D4FB019075E095
:100B6000444B53F82450444B33F91400FFF7CEFCA8
:100B70002946FFF75DFB0146404B43F82400404BFC
:100B80001868FFF70DFC014604EBC4023D4800EB7A
:100B90008200FFF7A9FFFFF783FD3B4B23F814000A
:100BA0000134032CDCDD394B1B6800255D62384BBA
:100BB0001B685D62374B1B685D62374B1B685D626B
:100BC000364F3B68304C22885A6362889A63A28809
:100BD000DA63E2881A64324E01221146304601F08F
:100BE000DBF92A460221304601F0D6F93B6822881B
:100BF0005A6301220421304601F0CEF92A468021B1
:100C0000284801F0C9F93B6862889A632A46402166
:100C1000304601F0C1F901228021304601F0BCF9D3
:100C20003B68A288DA6301224FF48071304601F0FC
:100C3000B3F92A464FF40071304601F0ADF93B6834
:100C4000E2881A64322101A804F022F90F4B1B68D4
:100C50005A6A094B1A800E4A1268526A5A800D4A23
:100C60001268526A9A800C4A1268526ADA8000242A
:100C700097E700BFCC6400088C0100203002002000
:100C80004002002098010020280200209802002045
:100C9000E002002028030020700300205002002002
:100CA000000C01400018014010B59AB002F07BFC26
:100CB0003C4B186002F077FC3B4B186002F073FC71
:100CC0003A4B186000240FE004EBC403384800EBF3
:100CD0008300384B83614FF07A53C361364B036214
:100CE0000021FFF7E1FE0134032CEDDD334B01223F
:100CF0001A70334C0DF1540CA646BEE80F00ACE858
:100D00000F00DEF80030CCF80030002115A804F008
:100D10009EF82C4B18600DF1400C04F1140EBEE847
:100D20000F00ACE80F00DEF80030CCF800300021F6
:100D300010A804F08CF8244B18600DF12C0C04F171
:100D4000280EBEE80F00ACE80F00DEF80030CCF84B
:100D5000003000210BA804F07AF81C4B18600DF14C
:100D6000180C04F13C0EBEE80F00ACE80F00DEF8F2
:100D70000030CCF80030002106A804F068F8144BCD
:100D800018600DF1040C50340FCCACE80F00236850
:100D9000CCF80030002101A804F059F80D4B186080
:100DA0001AB010BD4C02002048020020440200206E
:100DB00098010020CDCC0C3F9A9919BE94010020D7
:100DC00020640008800100207801002074010020C8
:100DD0007C0100208401002000B583B0124B5A69C9
:100DE00042F001025A615B6903F001030193019B28
:100DF000002211460D2001F0CFFB0D2001F004FC74
:100E0000002211460F2001F0C7FB0F2001F0FCFB70
:100E100000221146102001F0BFFB102001F0F4FB6E
:100E200003B05DF804FB00BF0010024000B58DB0B8
:100E30002422002103A804F00DFB00230193029358
:100E400012484FF08042026047224260836041F2C4
:100E50008832C26003618361012303930593099380
:100E600003A901F017FE50B900230193029301A9D1
:100E7000064801F0FBFF28B90DB05DF804FBFFF751
:100E80004FFDF1E7FFF74CFDF6E700BF98020020A9
:100E900000B58DB02422002103A804F0DBFA002362
:100EA000019302931148124A026047224260836014
:100EB00041F28832C2600361836101230393059389
:100EC000099303A901F0E6FD50B9002301930293B1
:100ED00001A9064801F0CAFF28B90DB05DF804FB6E
:100EE000FFF71EFDF1E7FFF71BFDF6E7E00200202C
:100EF0000004004000B58DB02422002103A804F0B6
:100F0000A9FA0023019302931148124A0260472272
:100F10004260836041F28832C260036183610123D1
:100F200003930593099303A901F0B4FD50B900237D
:100F30000193029301A9064801F098FF28B90DB06A
:100F40005DF804FBFFF7ECFCF1E7FFF7E9FCF6E7DF
:100F5000280300200008004000B58DB024220021A5
:100F600003A804F077FA0023019302931148124A70
:100F7000026047224260836041F28832C2600361AE
:100F80008361012303930593099303A901F082FD73
:100F900050B900230193029301A9064801F066FFAE
:100FA00028B90DB05DF804FBFFF7BAFCF1E7FFF7D5
:100FB000B7FCF6E770030020000C00400268094B04
:100FC0009A4200D0704782B003F564439A6942F4B4
:100FD00000629A619B6903F400630193019B02B074
:100FE000704700BF002C014000B58FB000230A936A
:100FF0000B930C930D930368B3F1804F0BD04C4AC5
:1010000093423FD04B4A934256D04B4A934275D0BD
:101010000FB05DF804FB03F50433DA6942F0010216
:10102000DA61DA6902F001020192019A9A6942F0EA
:1010300004029A619A6902F004020292029A9A6981
:1010400042F008029A619B6903F008030393039B33
:101050004FF400430A930AA9384800F07DFE0823A4
:101060000A9300230B930C930AA9354800F074FEF1
:10107000344A536823F4407343F0E06343F48073CD
:101080005360C5E7304BDA6942F00202DA61DA698F
:1010900002F002020492049A9A6942F004029A61F0
:1010A0009B6903F004030593059BC0230A930AA9D7
:1010B000224800F051FEABE7234BDA6942F004020C
:1010C000DA61DA6902F004020692069A9A6942F03D
:1010D00020029A619B6903F020030793079B4FF45A
:1010E00040530A930AA9194800F036FE154A53687E
:1010F00043F0E06343F48053536089E7124BDA69AD
:1011000042F00802DA61DA6902F008020892089AED
:101110009A6942F004029A619B6903F004030993FF
:10112000099B03230A930AA9044800F015FE6FE700
:101130000004004000080040000C0040000801408E
:10114000000C01400000014000100240001401406A
:1011500000B587B0002302930393049305930268BC
:10116000114B9A4202D007B05DF804FB03F56443CB
:101170009A6942F040029A619B6903F0400301932F
:10118000019B4FF4D443029302230393059302A9D6
:10119000064800F0E1FD064A536843F0E06343F07F
:1011A000C0035360DFE700BF002C0140001801407E
:1011B0000000014010B592B00024109411940994DD
:1011C0000A940B940C940D940E940F9420222146B3
:1011D00001A804F03FF93048304B0360446084605C
:1011E0004FF6FF73C36004614461846101F026FC23
:1011F00000283CD100231093119310A9264801F038
:1012000035FE002836D16023099300220A920B9202
:101210000C920D920E920F9209A91F4801F0CEFC7C
:1012200058BB042209A91C4801F0C8FC40BB082295
:1012300009A9194801F0C2FC28BB0C2209A91648CB
:1012400001F0BCFC10BB00230193029303930493B1
:1012500005934FF400520692089301A90E4801F03D
:1012600043FEB0B90C48FFF773FF12B010BDFFF793
:1012700057FBBFE7FFF754FBC5E7FFF751FBD0E78C
:10128000FFF74EFBD3E7FFF74BFBD6E7FFF748FB33
:10129000D9E7FFF745FBE5E750020020002C0140AD
:1012A00008B50A480A4B03604FF4E133436000235A
:1012B0008360C36003610C2242618361C36101F0FA
:1012C000DBFE00B908BDFFF72BFBFBE78404002021
:1012D0000038014008B50A480A4B03604FF4E13377
:1012E000436000238360C36003610C224261836119
:1012F000C36101F0C1FE00B908BDFFF711FBFBE7B8
:10130000C80400200044004008B50A480A4B0360A6
:101310004FF4E133436000238360C36003610C2218
:1013200042618361C36101F0A7FE00B908BDFFF708
:10133000F7FAFBE70C0500200048004070B58AB0C2
:1013400004460023069307930893099303686E4AA3
:10135000934208D06D4A93424BD06D4A934200F0BD
:101360008C800AB070BD6B4B9A6942F480429A61DE
:101370009A6902F480420092009A9A6942F004024B
:101380009A619B6903F004030193019B4FF400737E
:10139000069302230793032309935F4E06A9304661
:1013A00000F0DAFC4FF4806306930025079508955A
:1013B00006A9304600F0D0FC5848594B0360456000
:1013C00085608023C360056145618561C56100F06A
:1013D000FFFD58B9514BA3635C6200220221252016
:1013E00001F0DAF8252001F00FF9BAE7FFF798FAD3
:1013F000F0E7484BDA6942F40032DA61DA6902F464
:1014000000320292029A9A6942F004029A619B6940
:1014100003F004030393039B04230693022307931F
:10142000032309933C4E06A9304600F095FC08239F
:10143000069300250795089506A9304600F08CFC18
:101440003848394B0360456085608023C36005617F
:1014500045618561C56100F0BBFD58B9314BA3639F
:101460005C6200220121262001F096F8262001F07E
:10147000CBF876E7FFF754FAF0E7264BDA6942F447
:101480008022DA61DA6902F480220492049A9A696D
:1014900042F008029A619B6903F008030593059BDB
:1014A0004FF48063069302230793032309931F4E8F
:1014B00006A9304600F050FC4FF400630693002567
:1014C0000795089506A9304600F046FC1848194BC8
:1014D0000360456085608023C36005614561856167
:1014E000C56100F075FD58B9114BA3635C62002221
:1014F0000121272001F050F8272001F085F830E77E
:10150000FFF70EFAF0E700BF00380140004400404A
:10151000004800400010024000080140B8030020CD
:1015200058000240FC0300206C000240000C014007
:1015300040040020300002407047FEE7FEE7FEE76F
:10154000FEE7704708B5024800F09EFE08BD00BFE8
:101550004004002008B5024800F096FE08BD00BF18
:10156000B803002008B5024800F08EFE08BD00BF99
:10157000FC03002008B5024801F05CFE08BD00BF76
:101580008404002008B5024801F054FE08BD00BFE5
:10159000C804002008B5024801F04CFE08BD00BF99
:1015A0000C05002008B5024801F012F908BD00BF83
:1015B0005005002082B00E4B9A6942F001029A61F8
:1015C0009A6902F001020092009ADA6942F08052B0
:1015D000DA61DB6903F080530193019B054A53688C
:1015E00023F0E06343F00073536002B0704700BF24
:1015F000001002400000014000B589B00146002201
:101600002C2000F0C9FF2C2000F0FEFF144B9A693B
:1016100042F400529A619B6903F400530193019BC9
:1016200002A903A800F07AFB00F068FB0D4BA3FBB6
:1016300000239B0C013B0C480C4A026040F2E7324D
:10164000C260436000230361836001F0CBF918B1ED
:10165000012009B05DF804FB034801F079F8F8E7D0
:101660000010024083DE1B4350050020003401407F
:1016700008B5074A136843F010031360032000F015
:1016800079FF0020FFF7B8FFFFF794FF002008BDA7
:1016900000200240034A1168034B1B780B4413607F
:1016A000704700BF9805002000000020014B18681B
:1016B000704700BF9805002082B0084B1B68084A9D
:1016C000A2FB03235B0A00FB03F3019300BF019B12
:1016D0005A1E0192002BF9D102B070470800002079
:1016E000D34D6210002800F0F18170B582B004463D
:1016F000036813F0010F2CD0994B5B6803F00C03C7
:10170000042B1DD0964B5B6803F00C03082B12D002
:101710006368B3F5803F41D0002B55D103F180437E
:1017200003F504331A6822F480321A601A6822F42E
:1017300080221A6037E08A4B5B6813F4803FE7D061
:10174000874B1B6813F4003F03D06368002B00F045
:10175000BF81236813F0020F75D0814B5B6813F0D3
:101760000C0F5FD07E4B5B6803F00C03082B54D04A
:101770002369002B00F08A807A4B01221A60FFF760
:1017800095FF0546764B1B6813F0020F75D1FFF7E6
:101790008DFF401B0228F5D903209EE1704A136893
:1017A00043F480331360636843B3FFF77FFF05465C
:1017B0006B4B1B6813F4003FCBD1FFF777FF401B47
:1017C0006428F5D9032088E1B3F5A02F09D0644B34
:1017D0001A6822F480321A601A6822F480221A6091
:1017E000E1E703F18043A3F53C331A6842F4802219
:1017F0001A601A6842F480321A60D4E7FFF756FF85
:101800000546574B1B6813F4003FA2D0FFF74EFF6D
:10181000401B6428F5D903205FE1514B5B6813F44A
:10182000803FA5D14E4B1B6813F0020F03D02369F4
:10183000012B40F04F814A4A136823F0F803616995
:1018400043EAC1031360236813F0080F33D0A36980
:10185000002B5CD0434B0122C3F88024FFF726FF06
:1018600005463F4B5B6A13F0020F21D1FFF71EFFC5
:10187000401B0228F5D903202FE1394A136823F0D1
:10188000F803616943EAC1031360DCE7354B0022CA
:101890001A60FFF70BFF0546314B1B6813F0020F70
:1018A000D1D0FFF703FF401B0228F5D9032014E134
:1018B0000120FFF701FF236813F0040F00F096806A
:1018C000274BDB6913F0805F34D1254BDA6942F096
:1018D0008052DA61DB6903F080530193019B01259B
:1018E000214B1B6813F4807F26D0E368012B3DD089
:1018F000002B53D103F1804303F504331A6A22F01D
:1019000001021A621A6A22F004021A6233E0154BCD
:101910000022C3F88024FFF7C9FE0546104B5B6A1E
:1019200013F0020FC7D0FFF7C1FE401B0228F5D904
:101930000320D2E00025D3E70B4A136843F48073F9
:101940001360FFF7B3FE0646074B1B6813F4807F56
:10195000CBD1FFF7ABFE801B6428F5D90320BCE098
:101960000010024000004242007000405F4A136ACB
:1019700043F001031362E36833B3FFF797FE0646B3
:101980005A4B1B6A13F0020F2FD1FFF78FFE801BFB
:1019900041F288339842F3D903209EE0052B09D009
:1019A000524B1A6A22F001021A621A6A22F00402E9
:1019B0001A62E0E74D4B1A6A42F004021A621A6A90
:1019C00042F001021A62D6E7FFF770FE0646474B67
:1019D0001B6A13F0020F08D0FFF768FE801B41F26C
:1019E00088339842F3D9032077E0E5B9E369002B07
:1019F00072D03E4A526802F00C02082A56D0022BDE
:101A000017D03B4B00221A66FFF750FE0446374BB7
:101A10001B6813F0007F47D0FFF748FE001B022829
:101A2000F5D9032059E0314AD36923F08053D361BB
:101A3000DCE72F4B00221A66FFF738FE05462B4BDA
:101A40001B6813F0007F06D0FFF730FE401B022812
:101A5000F5D9032041E0236AB3F5803F1AD023492A
:101A60004B6823F47413226A606A024313434B6089
:101A70001F4B01221A66FFF719FE04461B4B1B6819
:101A800013F0007F0ED1FFF711FE001B0228F5D9DD
:101A9000032022E0154A536823F40033A1680B4366
:101AA0005360DCE7002018E0002016E0012B16D080
:101AB0000E4B5B6803F48031226A914211D103F42A
:101AC0007013626A93420ED1002006E00120704735
:101AD000012002E0012000E0002002B070BD0120E2
:101AE000FBE70120F9E70120F7E700BF0010024003
:101AF0000000424286B0174B0FCB0DF1180C0CE9D9
:101B00000F0040F20123ADF80430134B5B6803F083
:101B10000C02082A02D0114806B07047C3F3834272
:101B200018326A4412F8100C13F4803F0DD00A4B9F
:101B30005B68C3F3404318336B4413F8143C074A03
:101B400002FB00F0B0FBF3F0E6E7054B03FB00F00F
:101B5000E2E700BFDC6400080010024000127A00D7
:101B600000093D00002800F0A08070B50D46044635
:101B7000524B1B6803F007038B420BD24F4A13688A
:101B800023F007030B431360136803F007038B4232
:101B900040F08D80236813F0020F17D013F0040F6C
:101BA00004D0474A536843F4E0635360236813F05A
:101BB000080F04D0424A536843F460535360404ACC
:101BC000536823F0F003A1680B435360236813F0BC
:101BD000010F31D06368012B20D0022B25D0384A69
:101BE000126812F0020F64D035494A6822F00302ED
:101BF00013434B60FFF75AFD0646314B5B6803F019
:101C00000C036268B3EB820F16D0FFF74FFD801B09
:101C100041F288339842F0D9032045E0284A1268FF
:101C200012F4003FE0D101203EE0254A126812F094
:101C3000007FD9D1012037E0204B1B6803F0070358
:101C4000AB420AD91D4A136823F007032B431360E4
:101C5000136803F00703AB422DD1236813F0040F80
:101C600006D0174A536823F4E063E1680B435360DE
:101C7000236813F0080F07D0114A536823F4605308
:101C8000216943EAC1035360FFF734FF0C4B5B68E3
:101C9000C3F303130B4AD35CD8400B4B18600B4BB8
:101CA0001868FFF7A9FC002070BD012070470120D3
:101CB000FAE70120F8E70120F6E700BF0020024024
:101CC00000100240F064000808000020040000201A
:101CD000014B1868704700BF0800002008B5FFF7E7
:101CE000F7FF044B5B68C3F30223034AD35CD8407D
:101CF00008BD00BF001002400065000808B5FFF7EE
:101D0000E7FF044B5B68C3F3C223034AD35CD840AC
:101D100008BD00BF00100240006500080F230360EB
:101D20000B4B5A6802F0030242605A6802F0F0025C
:101D300082605A6802F4E062C2605B68DB0803F408
:101D4000E0630361034B1B6803F007030B607047FC
:101D5000001002400020024070B582B00024A4466A
:101D6000B0E0874DAA4210D007D9864DAA420CD0C8
:101D700005F58035AA4208D013E0A5F58015AA42E2
:101D800003D005F57025AA4207D18A68002A62D0DF
:101D9000012A5BD04361082403E0A5F58015AA421F
:101DA000F3D0BEF1FF0F58D80646BEF1FF0F56D84C
:101DB0004FEA8C0233680F25954023EA050304FAA5
:101DC00002F2134333604B6813F0805F78D06E4BA0
:101DD0009A6942F001029A619B6903F00103019341
:101DE000019B4FEA9C02951C684B53F825600CF050
:101DF00003039D000F23AB4026EA0306644B984281
:101E000033D003F58063984200F0988003F5806337
:101E1000984200F0958003F58063984200F092802C
:101E200003F58063984200F08F8003F58063984249
:101E300019D006231AE0CC68B3E7CC680434B0E7C5
:101E4000CC680834ADE7CC680C34AAE703610824F9
:101E5000A7E70024A5E70424A3E7061DA5E7ACF146
:101E600008029200A6E7052300E00023AB403343BD
:101E70000232464D45F822304B6813F4803F65D05E
:101E8000444A136843EA0E0313604B6813F4003F9F
:101E900062D0404A536843EA0E0353604B6813F420
:101EA000801F5FD03B4A936843EA0E0393604B6800
:101EB00013F4001F5CD0374AD36843EA0E03D360A3
:101EC0000CF1010C0A6832FA0CF357D0012303FA23
:101ED0000CF302EA030E33EA0202F1D14A68122A35
:101EE0003FF63FAF122A3FF65CAF01A555F822F04E
:101EF0008B1D0008371E0008411E0008531E0008F5
:101F0000A31D0008A31D0008A31D0008A31D0008B1
:101F1000A31D0008A31D0008A31D0008A31D0008A1
:101F2000A31D0008A31D0008A31D0008A31D000891
:101F3000A31D00083B1E0008471E0008012395E76B
:101F4000022393E7032391E704238FE7114A1368E1
:101F500023EA0E03136098E70E4A536823EA0E0340
:101F600053609BE70B4A936823EA0E0393609EE756
:101F7000084AD36823EA0E03D360A1E702B070BD1C
:101F8000000022100000311000100240000001404B
:101F900000080140000401400AB1016170470904D2
:101FA0000161704730B40124056CAC40C56B6C60B6
:101FB000046863604368102B05D003689960036868
:101FC000DA6030BC704703689A600368D960F8E74C
:101FD00000283AD010B4024600681D4B984229D818
:101FE0001C4B03441C49A1FB03131B099B001364F6
:101FF0001A4BD363022382F82130016821F47F5108
:1020000021F03001536894682343D4682343146952
:1020100023435469234394692343D46923430B43E3
:10202000036000209063012382F8213082F82000B1
:1020300010BC70470A4B03440749A1FB03131B095B
:102040009B001364074BD363D4E70120704700BFA4
:1020500007040240F8FFFDBFCDCCCCCC000002400D
:10206000F8FBFDBF0004024038B5044690F820009C
:10207000012831D0012084F8200094F821000128A3
:1020800004D0002384F82030022038BD022084F8D8
:1020900021000020A0632568286820F00100286046
:1020A0002046FFF77FFFE36A5BB12268136843F0C5
:1020B0000E0313602268136843F0010313600020CD
:1020C000E3E72268136823F00403136022681368AF
:1020D00043F00A031360EDE70220D6E790F82130C1
:1020E000022B06D004238363002380F820300120D4
:1020F00070470268136823F00E03136002681368C8
:1021000023F001031360036CC16B012202FA03F395
:102110004B6080F82120002380F82030184670475B
:1021200008B590F82130022B03D0042383630120EB
:1021300008BD0268136823F00E0313600268136879
:1021400023F00103136003684B4A93424ED9783A57
:10215000934224D01432934230D0143293422FD081
:10216000143293422FD0143293422FD01432934220
:102170002FD0143293422FD002F5627293422ED0A8
:10218000143293422DD0143293422CD01432934205
:1021900002D04FF4803203E04FF4805200E001227D
:1021A000364B5A60012380F82130002380F820301C
:1021B000436B002B5ED098470020B9E71022EFE771
:1021C0004FF48072ECE74FF48052E9E74FF480322D
:1021D000E6E74FF48012E3E74FF08072E0E7012278
:1021E000DEE71022DCE74FF48072D9E7244A9342FD
:1021F00024D01432934225D01432934224D0143286
:10220000934224D01432934224D01432934224D0E7
:102210001432934224D002F56272934223D01432D6
:10222000934222D01432934221D01432934202D0EE
:102230004FF4803203E04FF4805200E00122114B52
:102240005A60AFE71022FAE74FF48072F7E74FF4D5
:102250008052F4E74FF48032F1E74FF48012EEE75A
:102260004FF08072EBE70122E9E71022E7E74FF435
:102270008072E4E700205BE7800002400004024037
:10228000080002400000024038B5C36B1A680468B9
:102290002568016C04238B40134200F09B8015F0ED
:1022A000040F00F09780236813F0200F03D12368F8
:1022B00023F00403236003689A4A934246D9783A8C
:1022C000934224D01432934228D01432934227D020
:1022D0001432934227D01432934227D014329342BF
:1022E00027D01432934227D002F56272934226D04F
:1022F0001432934225D01432934224D014329342A4
:1023000002D04FF4802203E04FF4804200E0042228
:10231000854B5A60C36A03B1984738BD4022F7E73E
:102320004FF48062F4E74FF48042F1E74FF48022EB
:10233000EEE74FF48002EBE74FF08062E8E704221B
:10234000E6E74022E4E74FF48062E1E7774A934210
:1023500024D01432934225D01432934224D0143224
:10236000934224D01432934224D01432934224D086
:102370001432934224D002F56272934223D0143275
:10238000934222D01432934221D01432934202D08D
:102390004FF4802203E04FF4804200E00422644BBB
:1023A0005A60B7E74022FAE74FF48062F7E74FF44C
:1023B0008042F4E74FF48022F1E74FF48002EEE729
:1023C0004FF08062EBE70422E9E74022E7E74FF4B1
:1023D0008062E4E702238B40134200F0AB8015F0EB
:1023E000020F00F0A780236813F0200F06D12368A6
:1023F00023F00A032360012380F821300368494A4F
:1024000093424BD9783A934224D0143293422DD040
:10241000143293422CD0143293422CD01432934273
:102420002CD0143293422CD0143293422CD002F58B
:10243000627293422BD0143293422AD014329342C8
:1024400029D01432934202D04FF4003203E04FF40B
:10245000005200E00222344B5A60002380F8203002
:10246000836A002B3FF459AF984756E72022F2E7E2
:102470004FF40072EFE74FF40052ECE74FF40032F4
:10248000E9E74FF40012E6E74FF00072E3E70222BB
:10249000E1E72022DFE74FF40072DCE7234A9342B2
:1024A00024D01432934225D01432934224D01432D3
:1024B000934224D01432934224D01432934224D035
:1024C0001432934224D002F56272934223D0143224
:1024D000934222D01432934221D01432934202D03C
:1024E0004FF4003203E04FF4005200E00222104BA0
:1024F0005A60B2E72022FAE74FF40072F7E74FF490
:102500000052F4E74FF40032F1E74FF40012EEE727
:102510004FF00072EBE70222E9E72022E7E74FF4F1
:102520000072E4E78000024000040240080002401C
:1025300000000240082303FA01F111423FF4EDAE1E
:1025400015F0080F3FF4E9AE236823F00E03236073
:10255000026CC16B012303FA02F24A60836380F8C4
:102560002130002380F82030036B002B3FF4D5AEE0
:102570009847D2E6074AD36823F4E0631B041B0C98
:10258000000200F4E060034343F0BF6343F4003310
:10259000D360704700ED00E000B5194BDB68C3F372
:1025A0000223C3F1070CBCF1040F28BF4FF0040C49
:1025B00003F1040EBEF1060F18D9033B4FF0FF3EA6
:1025C0000EFA0CFC21EA0C0199400EFA03F322EA00
:1025D0000303194300280BDB0901C9B200F1604075
:1025E00000F5614080F800135DF804FB0023E5E787
:1025F00000F00F000901C9B2024B1954F4E700BF03
:1026000000ED00E014ED00E0002807DB00F01F0201
:10261000400901239340024A42F82030704700BF2E
:1026200000E100E030B4036A23F001030362036AAF
:102630004268846924F073040D682C4323F0020C73
:102640008B6843EA0C03104DA84203D005F50065E2
:10265000A84205D123F00803CD682B4323F00403DF
:10266000094DA84203D005F50065A84205D122F422
:1026700040724D692A438D692A43426084614A68E9
:102680004263036230BC7047002C014030B4036ADF
:1026900023F480730362036A4268C46924F0730CF4
:1026A0000C6844EA0C0523F400738C6843EA0423A5
:1026B000114CA04203D004F50064A04206D123F4DB
:1026C0000063CC6843EA042323F480630A4CA042ED
:1026D00003D004F50064A04207D122F440524C69B3
:1026E00042EA04128C6942EA04124260C5614A68F7
:1026F000C263036230BC7047002C014030B4036AEF
:1027000023F480530362036A4468C26922F4E642F8
:102710000D6842EA052223F400538D6843EA05332D
:10272000094DA84203D005F50065A84204D124F460
:1027300080444D6944EA85144460C2614A68026479
:10274000036230BC704700BF002C0140704700009E
:1027500090F83D30DBB2012B2FD1022380F83D30C1
:102760000268D36843F00103D3600368154A9342BB
:1027700018D002F50062934214D0B3F1804F11D00B
:10278000A2F5983293420DD002F58062934209D0AF
:1027900002F58062934205D01A6842F001021A6085
:1027A000002070479A6802F00702062A07D01A68CC
:1027B00042F001021A60002070470120704700209B
:1027C000704700BF002C014070477047704770474A
:1027D00010B5044603681A6912F0020F11D0DA68C6
:1027E00012F0020F0DD06FF002021A61012303777D
:1027F00003689B6913F0030F70D0FFF7E6FF002317
:10280000237723681A6912F0040F12D0DA6812F0E5
:10281000040F0ED06FF004021A610223237723689D
:102820009B6913F4407F5FD02046FFF7CEFF002363
:10283000237723681A6912F0080F12D0DA6812F0B1
:10284000080F0ED06FF008021A6104232377236863
:10285000DB6913F0030F4ED02046FFF7B6FF0023CD
:10286000237723681A6912F0100F12D0DA6812F079
:10287000100F0ED06FF010021A610823237723681F
:10288000DB6913F4407F3DD02046FFF79EFF002315
:10289000237723681A6912F0010F03D0DA6812F067
:1028A000010F36D123681A6912F0800F03D0DA685D
:1028B00012F0800F34D123681A6912F0400F03D050
:1028C000DA6812F0400F32D123681A6912F0200F33
:1028D00003D0DA6812F0200F30D110BDFFF774FF7B
:1028E0002046FFF773FF8AE72046FFF76DFF20467B
:1028F000FFF76CFF9BE72046FFF766FF2046FFF7D8
:1029000065FFACE72046FFF75FFF2046FFF75EFF5D
:10291000BDE76FF001021A612046FDF7F5FFC1E740
:102920006FF080021A61204600F008FBC3E76FF0E9
:1029300040021A612046FFF74AFFC5E76FF0200208
:102940001A61204600F0F9FAC7E700000368244A3C
:10295000904212D002F5006290420ED0B0F1804F4A
:102960000BD0A2F59832904207D002F580629042D7
:1029700003D002F58062904203D123F070034A68CD
:102980001343174A904212D002F5006290420ED0D3
:10299000B0F1804F0BD0A2F59832904207D002F5EB
:1029A0008062904203D002F58062904203D123F40A
:1029B0004073CA68134323F080034A6913430360DA
:1029C0008B68C3620B688362054B984203D003F5A2
:1029D0000063984201D10B6903630123436170478F
:1029E000002C014040B310B5044690F83D30F3B1DF
:1029F000022384F83D30214651F8040BFFF7A6FF6F
:102A0000012384F8463084F83E3084F83F3084F85F
:102A1000403084F8413084F8423084F8433084F800
:102A2000443084F8453084F83D30002010BD80F8F3
:102A30003C30FFF78BFEDBE70120704740B310B559
:102A4000044690F83D30F3B1022384F83D3021462E
:102A500051F8040BFFF77AFF012384F8463084F81D
:102A60003E3084F83F3084F8403084F8413084F8B8
:102A7000423084F8433084F8443084F8453084F898
:102A80003D30002010BD80F83C30FEF797FADBE7C0
:102A900001207047002857D070B50D46044690F8C5
:102AA0003D30002B4BD0022384F83D3022689368E0
:102AB00023F4804323F007039360214651F8040B6D
:102AC000FFF744FF21688A688B690E6A2868104303
:102AD00023F4407C2CF0030CAA68AB6942EA032380
:102AE00043EA0C0323F47C4323F0FC03EA69D5F8A2
:102AF0000CC04CEA022C4CEA030C2A6A13032A6924
:102B000043EA021343EA0C0326F022066A686D6961
:102B100042EA05123243886021688B6123681A6299
:102B2000012384F8463084F83E3084F83F3084F83E
:102B3000423084F8433084F83D30002070BD80F886
:102B40003C30FEF751FAAEE70120704730B4036A1B
:102B500023F010030362036A4468826922F4E642A8
:102B60000D6842EA052223F020038D6843EA05132D
:102B7000114DA84203D005F50065A84206D123F007
:102B80008003CD6843EA051323F040030A4DA842B1
:102B900003D005F50065A84207D124F440644D69CF
:102BA00044EA85048D6944EA8504446082614A6888
:102BB0008263036230BC7047002C014038B590F846
:102BC0003C30012B60D004460D46012380F83C3098
:102BD0000C2A1AD8DFE802F0071919191D1919195A
:102BE0003119191944000068FFF71CFD2268936928
:102BF00043F0080393612268936923F0040393610F
:102C00002268936929690B439361002084F83C0092
:102C100038BD0068FFF79AFF2268936943F40063A8
:102C200093612268936923F48063936122689369B6
:102C3000296943EA01239361E7E70068FFF726FD6E
:102C40002268D36943F00803D3612268D36923F073
:102C50000403D3612268D36929690B43D361D4E7A4
:102C60000068FFF74BFD2268D36943F40063D3612A
:102C70002268D36923F48063D3612268D369296908
:102C800043EA0123D361C0E70220C1E701F01F013D
:102C9000012303FA01FC036A23EA0C030362036ABB
:102CA00002FA01F10B4303627047000010B50446BD
:102CB000084600293AD194F83E30DBB2013B18BFF8
:102CC0000123002B66D1002849D1022384F83E302D
:102CD000012201462068FFF7D9FF23682F4A93425B
:102CE00003D002F50062934203D15A6C42F40042D1
:102CF0005A642368294A934241D002F50062934204
:102D00003DD0B3F1804F3AD0A2F59832934236D0FD
:102D100002F58062934232D002F5806293422ED057
:102D20001A6842F001021A60002032E0042908D03B
:102D300008290DD094F84130DBB2013B18BF0123C4
:102D4000BFE794F83F30DBB2013B18BF0123B8E77F
:102D500094F84030DBB2013B18BF0123B1E70428EF
:102D600005D0082807D0022384F84130B0E70223B9
:102D700084F83F30ACE7022384F84030A8E79A6833
:102D800002F00702062A07D01A6842F001021A6010
:102D9000002010BD0120FCE70020FAE7002C0140D4
:102DA00038B5044690F83E00C0B294F83F3094F82D
:102DB0004220D2B294F843C00D46B1B9012849D19E
:102DC000012A48D1022384F83E3084F842307DB392
:102DD000042D39D0012200212068FFF757FF01227E
:102DE00004212068FFF752FF27E0DBB25FFA8CFC7A
:102DF000042912D0012833D1012B2CD1012A31D141
:102E0000BCF1010F30D1022384F83E3084F83F300A
:102E100084F8423084F84330D9E7012B1CD1BCF14F
:102E2000010F1BD1022384F83F3084F84330CEE7F2
:102E3000012200212068FFF729FF2268136843F070
:102E400001031360002006E0012204212068FFF73F
:102E50001DFFF2E7012038BD0120FCE71846FAE724
:102E60000120F8E71846F6E71046F4E790F83C3002
:102E7000012B34D010B4012380F83C30022380F8B9
:102E80003D3003685A689C6822F0700C0A6842EA78
:102E90000C025A600368134A934212D002F5006292
:102EA00093420ED0B3F1804F0BD0A2F598329342EB
:102EB00007D002F58062934203D002F5806293420C
:102EC00004D124F080044A6814439C60012380F8F4
:102ED0003D30002380F83C30184610BC704702207B
:102EE000704700BF002C014090F83C30012B22D0ED
:102EF000012380F83C30CB6823F440738A68134385
:102F000023F480634A68134323F400630A6813437D
:102F100023F480530A69134323F400534A6913438B
:102F200023F48043CA69134302685364002380F882
:102F30003C3018467047022070477047704702685F
:102F4000D36823F0C003D360202380F83D3070475E
:102F50000268D36823F49073D3600268536923F046
:102F600001035361036B012B05D0202380F83E3011
:102F70000023036370470268D36823F01003D36013
:102F8000F3E790F83D30DBB2212B01D002207047EF
:102F90008368B3F5805F17D0036A5A1C02621A78FF
:102FA00003685A60C38C9BB2013B9BB2C3844BB98C
:102FB0000268D36823F08003D3600268D36843F0CB
:102FC0004003D360002070470369002BE4D1036AFB
:102FD0001B880268C3F308035360036A0233036269
:102FE000E0E7000010B504460268136923F440537B
:102FF000C1680B43136183680269134342691A4332
:103000000168CB6823F4B05323F00C031343CB6067
:103010000268536923F4407381690B43536102686A
:10302000134B9A4220D0FEF759FE024602EB820271
:1030300002EB820263689B00B2FBF3F20D48A0FB37
:1030400002314909642303FB11231B013233A0FB26
:1030500003235B0903F0F00202EB011203F00F03FC
:10306000216813448B6010BDFEF748FE0246DDE781
:10307000003801401F85EB5158B310B5044690F855
:103080003D300BB3242384F83D302268D36823F409
:103090000053D3602046FFF7A5FF2268136923F48D
:1030A000904313612268536923F02A035361226815
:1030B000D36843F40053D36000202064202384F8B5
:1030C0003D3084F83E3010BD80F83C30FEF736F9D4
:1030D000D8E701207047704708B50168CA6822F038
:1030E0004002CA60202280F83D20FFF7F4FF002054
:1030F00008BD70477047704710B5446A23685A6925
:1031000094F83D30DBB2212B10D023685A6902F0CD
:10311000400294F83E30DBB2222B11D0236C43F0F6
:10312000100323642046FFF7E6FF10BD02F0800283
:10313000002AEAD00023E3842046FFF700FFE4E7FB
:10314000002AEBD00023E3852046FFF701FFE5E7E7
:1031500008B5406A0023C385C384FFF7CCFF08BDD0
:1031600090F83E30DBB2222B60D18368B3F5805FEC
:1031700046D0826AB3F5805F04D0002B4DD103693D
:10318000002B4AD103685B681370836A0133836242
:10319000C38D9BB2013B9BB2C385002B48D100B5C8
:1031A00083B00268D36823F02003D3600268D36839
:1031B00023F48073D3600268536923F001035361E1
:1031C000202380F83E30036B012B2CD100230363B6
:1031D0000268D36823F01003D36003681A6812F002
:1031E000100F06D0002201921A6801925B680193C9
:1031F000019B818DFDF774FA002003B05DF804FB9C
:103200000269002AB5D1826A03685B68C3F30803C8
:103210001380836A02338362BAE703685B6803F052
:103220007F031370B1E7FFF764FFE5E70220704703
:103230000020704730B583B0044602681368D06838
:10324000516913F00F0505D113F0200F02D010F0D3
:10325000200F19D12DB111F0010119D110F4907F77
:1032600016D1216B012975D013F0800F03D010F017
:10327000800F40F0D78013F0400F03D010F0400FC4
:1032800040F0D48003B030BD2046FFF769FFF9E776
:1032900013F0010F06D010F4807F03D0226C42F0AF
:1032A0000102226413F0040F04D019B1226C42F021
:1032B0000202226413F0020F04D019B1226C42F012
:1032C0000402226413F0080F07D010F0200F00D181
:1032D00019B1226C42F008022264226C002AD1D07B
:1032E00013F0200F02D010F0200F21D123685B696A
:1032F00003F04003226C12F0080F00D123B32046E4
:10330000FFF726FE23685A6912F0400F18D05A6959
:1033100022F040025A61A36B73B1464A5A63A06B14
:10332000FEF7FEFE0028ADD0A06B436B9847A9E7DF
:103330002046FFF715FFD9E72046FFF7DCFEA1E79F
:103340002046FFF7D8FE9DE72046FFF7D4FE002376
:10335000236497E713F0100F86D010F0100F83D07E
:10336000002301931368019353680193019B5369F0
:1033700013F0400F32D0A16B0B685B689BB2002B3F
:1033800080D0A08D98427FF67DAFE3858B69202B9E
:1033900008D1A18DE38D9BB2C91A89B22046FDF7F1
:1033A0009FF96FE7D36823F48073D3602268536971
:1033B00023F0010353612268536923F040035361F2
:1033C000202384F83E30002323632268D36823F04F
:1033D0001003D360A06BFEF781FEDAE7A18DE38DC9
:1033E0009BB2C91A89B2E38D9BB2002B3FF44AAF5E
:1033F00000293FF447AFD36823F49073D360226869
:10340000536923F001035361202384F83E300023E5
:1034100023632268D36823F01003D3602046FDF7AE
:103420005FF92FE72046FFF7ACFD2BE72046FFF7BB
:1034300053FE27E75131000808B5406A036B012BA2
:1034400002D0FFF757FE08BD818D4908FDF748F906
:10345000F9E708B50346406A1B681B6813F0200FA4
:1034600016D10023C3850268D36823F48073D36028
:103470000268536923F0010353610268536923F022
:1034800040035361202380F83E30036B012B05D0AD
:10349000036B012B08D0FFF72CFE08BD0268D36830
:1034A00023F01003D360F3E7818DFDF719F9F4E7FA
:1034B00030B583B0044613468162828500250564D9
:1034C000222280F83E20826B14489062A26B14483E
:1034D000D062A26B13481063A26B556320680A4642
:1034E000011DA06BFEF7C0FD019523681A680192CB
:1034F0005A680192019A84F83C50DA6842F480726A
:10350000DA602268536943F001035361226853690A
:1035100043F040035361284603B030BD53340008E4
:1035200039340008F930000890F83E30DBB2202B27
:1035300021D110B582B00446F9B102B390F83C3005
:10354000012B1FD0012380F83C300363FFF7B0FF4D
:10355000B0B9236B012B01D0012011E000230193AE
:1035600023681A6801925A680192019ADA6842F057
:103570001002DA6004E002207047012000E0012020
:1035800002B010BD0220FBE770471AB9084206D10D
:103590001046704731EA000303D000207047012035
:1035A00070470120704710B5182001F0DDFC04467B
:1035B00020B1002340F8043B00F0D0F8204610BDB5
:1035C0002DE9F84378B10C4616461D46074611F022
:1035D0007F4811D04FF0100383F31188BFF36F8F32
:1035E000BFF34F8FFEE74FF0100383F31188BFF353
:1035F0006F8FBFF34F8FFEE741B94FF0100383F396
:103600001188BFF36F8FBFF34F8FFEE701F08AF988
:1036100050B9089B43B14FF0100383F31188BFF3F7
:103620006F8FBFF34F8FFEE700F064FED7F8009076
:103630002A4621464846FFF7A8FFF0B116B129EA0D
:1036400004033B6000F0F0FEB8F1000F12D048B95F
:103650004FF0E0234FF08052C3F8042DBFF34F8F9B
:10366000BFF36F8F01F0C8F9814610F0007F1AD0C8
:1036700029F07F494846BDE8F883089B83B166B9C5
:1036800041460DB141F08061089A2143381D01F097
:1036900023F8C146DDF82080D4E74FF08071F0E7D1
:1036A000DDF82080CEE701F065FDD7F800902A46CE
:1036B00021464846FFF769FF18B116B129EA04040C
:1036C0003C6001F079FDD3E7F8B568B10D460446DA
:1036D00011F07F4711D04FF0100383F31188BFF32F
:1036E0006F8FBFF34F8FFEE74FF0100383F3118806
:1036F000BFF36F8FBFF34F8FFEE700F10C0600F0B2
:10370000F9FD206923682B4323600AE0216832EA2F
:10371000010105D111E0216841F0007101F06AF862
:103720002846B0420ED04568036823F07F4213F06C
:10373000806FEBD121681142F2D013F0807FEAD084
:103740001743E8E7236823EA0703236000F06CFED1
:103750002068F8BD08B5FFF7B7FF08BD00F1080302
:1037600043604FF0FF328260C36003610023036057
:10377000704700230361704743684B609A688A6012
:10378000516099600861036801330360704730B489
:103790000D68B5F1FF3F11D000F108031C465B68CE
:1037A0001A68AA42FAD963684B6099608C606160BC
:1037B000086103680133036030BC70470469F2E7B5
:1037C0000369416882688A60416851605A68824230
:1037D00006D0002202611A68013A1A601868704720
:1037E00082685A60F5E710B5044601F0C3FCA26B8D
:1037F000E36B9A4204D0002401F0DEFC204610BDA9
:103800000124F9E710B5044601F0B4FCA36B23B919
:10381000012401F0D1FC204610BD0024F9E770B569
:1038200004461546866B026C5AB903681BB100202A
:103830000136A66370BD406801F084F80023636020
:10384000F6E76DB9806801F0F7FD226CA3681344B8
:10385000A3606268934219D32368A3602846E7E710
:10386000C06801F0E9FD226C5142E3689B1AE360F5
:103870002268934202D263680B44E360022D01D0B8
:103880000020D5E726B1013E0020D1E72846CFE74A
:103890000020CDE708B50346026C62B10846D9683E
:1038A0001144D960D3F804C0614501D31968D960C7
:1038B000D96801F0C1FD08BD38B5054601F05AFCD4
:1038C00095F8454064B201E0013C64B2002C0ADD89
:1038D0006B6A43B105F1240000F046FF0028F3D0E5
:1038E00001F01AF8F0E7FF2385F8453001F064FC99
:1038F00001F040FC95F8444064B201E0013C64B240
:10390000002C0ADD2B6943B105F1100000F02CFFFB
:103910000028F3D001F000F8F0E7FF2385F84430E9
:1039200001F04AFC38BD38B5E0B10D46044601F05F
:1039300021FC2368E26B216C01FB023060600020F7
:10394000A063A360013A02FB0133E360FF2384F824
:10395000443084F84530FDB9236963B901F02CFC8B
:10396000012038BD4FF0100383F31188BFF36F8F30
:10397000BFF34F8FFEE704F1100000F0F5FE0028C2
:10398000ECD04FF0E0234FF08052C3F8042DBFF38A
:103990004F8FBFF36F8FE1E704F11000FFF7DEFEFA
:1039A00004F12400FFF7DAFED8E710B503460298C9
:1039B0000C4631B90060C36304640121FFF7B3FF13
:1039C00010BD0260F7E740B94FF0100383F3118890
:1039D000BFF36F8FBFF34F8FFEE7F0B583B00C4698
:1039E0001546064689B101FB00F0483001F0BCFAEB
:1039F000074638B100902B4600F148022146304678
:103A0000FFF7D3FF384603B0F0BD0846EDE7F0B549
:103A100085B0019288B10F461D460446B1B1022D12
:103A200020D1E36B012B1DD04FF0100383F31188DD
:103A3000BFF36F8FBFF34F8FFEE74FF0100383F399
:103A40001188BFF36F8FBFF34F8FFEE7036C002B1E
:103A5000E5D04FF0100383F31188BFF36F8FBFF3EE
:103A60004F8FFEE700F05EFF064658B9019B002B22
:103A700048D04FF0100383F31188BFF36F8FBFF36B
:103A80004F8FFEE700263DE02A4639462046FFF7E5
:103A9000C6FE636A7BB948B14FF0E0234FF0805215
:103AA000C3F8042DBFF34F8FBFF36F8F01F084FB7A
:103AB000012005B0F0BD04F1240000F055FE0028FF
:103AC000F4D04FF0E0234FF08052C3F8042DBFF341
:103AD0004F8FBFF36F8FE9E701F06EFB0020E8E73F
:103AE00002A800F0CBFE012619E0002384F8443040
:103AF00021E0002384F8453023E02046FFF7DCFE78
:103B000000F092FC01F036FBA26BE36B9A42BBD350
:103B1000022DB9D0019B002BDED0002EE0D001F0A9
:103B20004BFB00F0E7FB01F025FB94F8442052B278
:103B3000B2F1FF3FD9D094F8452052B2B2F1FF3F25
:103B4000D7D001F039FB01A902A800F0A3FED8B933
:103B50002046FFF748FE0028CFD0019904F110005D
:103B600000F0A2FD2046FFF7A7FE00F05DFC002854
:103B7000C8D14FF0E0234FF08052C3F8042DBFF3BB
:103B80004F8FBFF36F8FBDE72046FFF795FE00F024
:103B90004BFC00208DE72DE9F84390B10F46164607
:103BA0001C460546B1B1022C20D1EB6B012B1DD078
:103BB0004FF0100383F31188BFF36F8FBFF34F8F64
:103BC000FEE74FF0100383F31188BFF36F8FBFF34D
:103BD0004F8FFEE7036C002BE5D04FF0100383F30B
:103BE0001188BFF36F8FBFF34F8FFEE701F0ACFB7F
:103BF000EFF311894FF0100383F31188BFF36F8F38
:103C0000BFF34F8FAA6BEB6B9A4206D3022C04D002
:103C1000002089F31188BDE8F88395F845804FFAB4
:103C200088F8224639462846FFF7F9FDB8F1FF3FEC
:103C300006D008F101035BB285F845300120E8E7C2
:103C40006B6A0BB90120E4E705F1240000F08CFD5C
:103C500018B126B101203060DBE70120D9E701204F
:103C6000D7E7F0B585B0019290B10F460446C1B1D7
:103C700000F058FE064600BB019B002B5ED04FF0C3
:103C8000100383F31188BFF36F8FBFF34F8FFEE7ED
:103C90004FF0100383F31188BFF36F8FBFF34F8F83
:103CA000FEE7036C002BE3D04FF0100383F3118881
:103CB000BFF36F8FBFF34F8FFEE700263EE039461C
:103CC0002046FFF7E7FD013DA563236923B901F015
:103CD00073FA012005B0F0BD04F1100000F044FDBE
:103CE0000028F4D04FF0E0234FF08052C3F8042DA9
:103CF000BFF34F8FBFF36F8FE9E701F05DFA00204C
:103D0000E8E702A800F0BAFD012621E0002384F8CC
:103D1000443029E0002384F845302BE02046FFF7AB
:103D2000CBFD00F081FB09E02046FFF7C5FD00F068
:103D30007BFB2046FFF766FD00283FD101F01AFA11
:103D4000A56B002DBBD1019B002BD6D0002ED8D067
:103D500001F032FA00F0CEFA01F00CFA94F8443097
:103D60005BB2B3F1FF3FD1D094F845305BB2B3F111
:103D7000FF3FCFD001F020FA01A902A800F08AFD90
:103D80000028D1D12046FFF73DFD0028C6D001997B
:103D900004F1240000F088FC2046FFF78DFD00F0C0
:103DA00043FB0028CAD14FF0E0234FF08052C3F804
:103DB000042DBFF34F8FBFF36F8FBFE7002089E75C
:103DC0000023072B0CD8074A52F833200AB10133DD
:103DD000F7E7044A42F8331002EBC3035860704718
:103DE000704700BF9C05002070B504460D4616467E
:103DF00001F0C0F994F844305BB2B3F1FF3F0DD04D
:103E000094F845305BB2B3F1FF3F0BD001F0D4F929
:103E1000A36B5BB12046FFF74FFD70BD002384F814
:103E20004430EDE7002384F84530EFE73246294679
:103E300004F1240000F07CFCECE70000084B1B6858
:103E40001B6823B9074B4FF0FF321A607047044BD1
:103E50001B68DB68DB685A68024B1A60704700BF5A
:103E6000E0050020B806002010B50446006B01F004
:103E7000F3F8204601F0F0F810BD2DE9F0470746B1
:103E80009846089DDDF824900A9C266B02F180423A
:103E9000013A06EB820626F007064FF0000CBCF153
:103EA0000F0F0BD811F80C2004EB0C0383F834200F
:103EB00011F80C3013B10CF1010CF0E7002384F879
:103EC0004330062D00D90625E56265644FF0000AEF
:103ED000C4F848A0201DFFF74CFC04F11800FFF7C0
:103EE00048FC2461C5F10705A5616462C4F84CA0D3
:103EF00084F850A042463946304601F015F920605A
:103F0000B9F1000F01D0C9F80040BDE8F08700000A
:103F100038B5002407E004EB840293000E481844EF
:103F2000FFF71CFC0134062CF5D90C4D2846FFF791
:103F300015FC0B4C2046FFF711FC0A48FFF70EFC5E
:103F40000948FFF70BFC0948FFF708FC084B1D6008
:103F5000084B1C6038BD00BFE80500208C0600201F
:103F6000A0060020C0060020EC060020D806002095
:103F7000E0050020E405002010B5044601F0FAF841
:103F8000214A136801331360204B1B685BB1204B3F
:103F90001B686BB91D4B1B68DA6AE36A9A4207D843
:103FA0001A4B1C6004E0194B1C601368012B28D0CD
:103FB000184A136801331360E06A01238340164AEC
:103FC00011680B43136000EB8000211D134B03EBC2
:103FD0008000FFF7D1FB01F0EFF80D4B1B687BB1C0
:103FE0000A4B1B68DA6AE36A9A4209D24FF0E0236F
:103FF0004FF08052C3F8042DBFF34F8FBFF36F8F84
:1040000010BDFFF785FFD3E774060020DC05002014
:10401000D40600208406002088060020E805002041
:104020000F4B1B68D3B110B501F0A4F80D4BDB6842
:10403000DC68201DFFF7C4FB0B4A1368013B1360CB
:10404000074A1368013B136001F0B6F82046FFF7FA
:104050000BFF034B1B68002BE6D110BD704700BF60
:1040600078060020EC0600207406002008B5FFF753
:10407000D7FF074B1B68012BF9D94FF0E0234FF016
:104080008052C3F8042DBFF34F8FBFF36F8FEEE75D
:10409000E805002070B504460D461D4B1E681D4BFB
:1040A00018680430FFF78CFB50B91A4B1B68DA6AAA
:1040B000012303FA02F218490B6823EA02030B609A
:1040C000B4F1FF3F0DD03444124B1B685C60A64234
:1040D00010D9124B18680F4B19680431FFF757FBC2
:1040E00070BD002DEFD00B4B196804310C48FFF761
:1040F00043FBF5E70B4B1868064B19680431FFF7D3
:1041000046FB094B1B68A342EAD9074B1C60E7E753
:1041100000070020DC05002088060020E4050020C0
:10412000D8060020E0050020B80600202DE9F04365
:1041300085B00746884614461E46900000F014FFDE
:10414000F0B18146542000F00FFF0546A0B1C0F841
:104150003090D5B10023039302950D9B01930C9BE6
:1041600000933346224641463846FFF786FE2846EE
:10417000FFF702FF012005E0484600F06DFFE8E789
:104180004FF0FF3005B0BDE8F0834FF0FF30F9E7A6
:1041900038B5044600F0EEFF002C33D0251D28462C
:1041A000FFF70EFB68B9E26A02EB82039B00274926
:1041B000CB5833B90123934025490A6822EA030208
:1041C0000A60A36A1BB104F11800FFF7F9FA214A4B
:1041D000136801331360204B1B68A34215D01F4A9C
:1041E0001368013B13602046FFF73EFEFFF726FEF3
:1041F00000F0E2FF1A4B1B681BB1174B1B68A34270
:104200000CD038BD144B1C68C8E729461548FFF789
:10421000B3FA154A136801331360E9E7134B1B68BF
:1042200043B14FF0100383F31188BFF36F8FBFF3D7
:104230004F8FFEE74FF0E0234FF08052C3F8042D7C
:10424000BFF34F8FBFF36F8FDBE700BFE8050020A0
:104250008806002084060020DC050020740600206B
:10426000D4060020EC0600207806002080060020FE
:1042700000B583B0194B01930023009380221849A5
:104280001848FFF753FF012807D0012808D0B0F1E4
:10429000FF3F1AD003B05DF804FB00F01BFCF4E70D
:1042A0004FF0100383F31188BFF36F8FBFF34F8F6D
:1042B0000D4B4FF0FF321A600C4B01221A600C4B71
:1042C00000221A6000F0E0FFE4E74FF0100383F3F0
:1042D0001188BFF36F8FBFF34F8FFEE7B406002046
:1042E000086500086D400008B8060020D4060020CC
:1042F00000070020024A136801331360704700BFB3
:1043000080060020014B1868704700BF000700209E
:10431000F8B53A4B1B68002B64D1394B1D68013549
:104320001D60C5B9374B1B681B6843B14FF01003C4
:1043300083F31188BFF36F8FBFF34F8FFEE7314ACE
:104340001168314B186810601960304A13680133E6
:104350001360FFF773FD2E4B1B68AB4238D9002763
:104360002C4B1B68DB6A03EB83039A002A4B9B5898
:10437000012B3CD901273AE00127224B1B681B681F
:1043800043B3204B1B68DB68DC6863689D4226D31F
:10439000261D3046FFF714FAA36A1BB104F118007A
:1043A000FFF70EFAE36A01229A401C4908680243AB
:1043B0000A6003EB83039A00314617481044FFF765
:1043C000DBF9E26A134B1B68DB6A9A42D4D2D4E76A
:1043D0000027D2E70E4B4FF0FF321A60C0E70C4ABD
:1043E0001360BDE70E4A13680133136000270D4BBD
:1043F0001B6803B101273846F8BD00BF80060020C6
:1044000000070020E0050020E4050020BC06002095
:10441000B8060020DC050020E80500208806002002
:104420007C0600200407002038B5354B1B6843B9D3
:104430004FF0100383F31188BFF36F8FBFF34F8FDB
:10444000FEE700F097FE2E4B1A68013A1A601B68CF
:10445000002B4FD12B4B1B680BB900244BE00024E1
:10446000294B1B681BB3284BDB68DC6804F1180080
:10447000FFF7A6F9251D2846FFF7A2F9E06A0123F8
:104480008340224A11680B43136000EB80002946E9
:104490001F4B03EB8000FFF76FF9E26A1D4B1B68AF
:1044A000DB6A9A42DCD31C4B01221A60D8E70CB1BC
:1044B000FFF7C4FC194B1C6884B9174B1C68D4B1B6
:1044C0004FF0E0234FF08052C3F8042DBFF34F8F1D
:1044D000BFF36F8F01240EE0013C07D0FFF718FFF8
:1044E0000028F9D00C4B01221A60F5E70B4B002293
:1044F0001A60E2E7002400F05FFE204638BD00BFEE
:104500008006002074060020C006002088060020D7
:10451000E8050020DC050020040700207C060020C0
:1045200038B558B10C46054689B94FF0100383F3EE
:104530001188BFF36F8FBFF34F8FFEE74FF010036B
:1045400083F31188BFF36F8FBFF34F8FFEE71B4BD1
:104550001B6843B14FF0100383F31188BFF36F8FD3
:10456000BFF34F8FFEE7FFF7C5FE154B18682B68AA
:104570001C44834209D9A34201D82C600EE0A0421A
:1045800001D32C600AE02C6004E0A34201D8A042D1
:1045900012D22C600021201AFFF77CFDFFF744FFA8
:1045A00048B94FF0E0234FF08052C3F8042DBFF319
:1045B0004F8FBFF36F8F38BD2C60EFE78006002070
:1045C0000007002010B5A8B10446104B1B6843B18A
:1045D0004FF0100383F31188BFF36F8FBFF34F8F3A
:1045E000FEE7FFF787FE00212046FFF753FDFFF7A8
:1045F0001BFF48B94FF0E0234FF08052C3F8042D61
:10460000BFF34F8FBFF36F8F10BD00BF8006002038
:10461000204B1B681BB1204B01221A6070471E4BB8
:1046200000221A601D4B1B68B3FA83F3DBB2C3F19F
:104630001F0303EB83018A0019498A5842B94FF0DE
:10464000100383F31188BFF36F8FBFF34F8FFEE723
:10465000134903EB830082000A44506840685060AD
:1046600003EB830C4FEA8C0208321144884209D0D4
:1046700003EB83039A000A4B13445B68DA68094B27
:104680001A607047406862469100054A0A445060CB
:10469000EEE700BF80060020040700208806002007
:1046A000E8050020DC05002058B110B50C46094A89
:1046B00011681831FFF76BF801212046FFF7EAFC7B
:1046C00010BD4FF0100383F31188BFF36F8FBFF35A
:1046D0004F8FFEE7DC05002070B110B5144602468E
:1046E000114B1B688BB94FF0100383F31188BFF394
:1046F0006F8FBFF34F8FFEE74FF0100383F31188E6
:10470000BFF36F8FBFF34F8FFEE7084B186841F080
:1047100000418161196818311046FFF72DF8012119
:104720002046FFF7B7FC10BD80060020DC05002006
:1047300038B570B10D4614460A4A11681831FFF7B2
:104740001BF80CB14FF0FF3521462846FFF7A2FCBD
:1047500038BD4FF0100383F31188BFF36F8FBFF3A1
:104760004F8FFEE7DC05002038B5C368DC6824B352
:1047700004F118052846FFF723F8184B1B682BBBDC
:10478000251D2846FFF71CF8E06A01238340144AE0
:1047900011680B43136000EB80002946114B03EBBB
:1047A0008000FEF7E9FFE26A0F4B1B68DB6A9A4262
:1047B00011D901200D4B186038BD4FF0100383F361
:1047C0001188BFF36F8FBFF34F8FFEE7294608486C
:1047D000FEF7D2FFE7E70020EEE700BF80060020EB
:1047E00088060020E8050020DC05002004070020E2
:1047F000C006002038B51C4B1B6843B94FF01003AE
:1048000083F31188BFF36F8FBFF34F8FFEE741F043
:1048100000410160C468F4B1FEF7D2FF251D2846AF
:10482000FEF7CEFFE06A01238340104A11680B4374
:10483000136000EB800029460D4B03EB8000FEF770
:104840009BFFE26A0B4B1B68DB6A9A4202D90A4B58
:1048500001221A6038BD4FF0100383F31188BFF3B3
:104860006F8FBFF34F8FFEE7800600208806002081
:10487000E8050020DC05002004070020034B1B682E
:104880000360034B1B684360704700BFBC060020F9
:1048900000070020D8B170B50C46054601B300F002
:1048A00069FC1B4B19686B68C81A2268B2F1FF3F9C
:1048B00027D0184E3668D5F800C0B44501D08B42D9
:1048C00024D9824215D80023236001241AE04FF036
:1048D000100383F31188BFF36F8FBFF34F8FFEE791
:1048E0004FF0100383F31188BFF36F8FBFF34F8F27
:1048F000FEE75B1A134423602846FFF7BFFF00243E
:1049000000E0002400F058FC204670BD0124F9E7C7
:1049100000070020BC060020014B01221A607047EE
:1049200004070020054B1B6833B1054B1B680BB116
:10493000002070470220704701207047D4060020F5
:104940008006002000284CD038B50446274B1B6851
:10495000834208D04FF0100383F31188BFF36F8FA9
:10496000BFF34F8FFEE7836C43B94FF0100383F31F
:104970001188BFF36F8FBFF34F8FFEE7013B836456
:10498000C16A426C91422ED00BB1002038BD051D8A
:104990002846FEF715FF70B9E26A02EB82039B001E
:1049A0001349CB583BB9012303FA02F211490B68B2
:1049B00023EA02030B60606CE062C0F10703A361AD
:1049C000012404FA00F30B4A11680B43136000EB57
:1049D00080002946064B03EB8000FEF7CDFE204603
:1049E000D4E7002070470020D0E700BFDC0500209E
:1049F000E805002088060020044A136898691368B7
:104A0000DB6A1268C3F1070393617047DC0500207D
:104A1000064B1A681368B3FA83F35B09036013B992
:104A2000D368186870470020704700BF080700204F
:104A300008B54160006191420CD8D21A83699A424C
:104A400001D3012008BD011D094B1868FEF79FFE28
:104A50000020F7E79A4201D2994206D2011D054B88
:104A60001868FEF794FE0020ECE70120EAE700BF9B
:104A70000C0700200807002038B500F07BFB0F4B27
:104A80001B6813B100F098FB38BD0D4D2846FEF7AA
:104A900065FE0C4C2046FEF761FE0B4B1D600B4B78
:104AA0001C60002210210A20FEF78DFF034B1860C6
:104AB0000028E7D00649FFF783F9E3E73C07002029
:104AC0001007002024070020080700200C07002002
:104AD0001065000800B583B0FFF7CEFF0D4B1B68D3
:104AE0005BB10D4B01930223009300234FF48072BE
:104AF0000A490B48FFF71AFB40B94FF0100383F344
:104B00001188BFF36F8FBFF34F8FFEE703B05DF8DF
:104B100004FB00BF3C070020400700201865000888
:104B2000F94D0008B8B19C4603461848006858B3D0
:104B300000B585B000910192029305291CDCFFF7B6
:104B4000F1FE022810D000231A4669460F4800687B
:104B5000FEF75DFF15E04FF0100383F31188BFF3FC
:104B60006F8FBFF34F8FFEE70023069A6946074811
:104B70000068FEF74CFF04E0002362466946FFF739
:104B80000AF805B05DF804FB002070473C070020E0
:104B900070B582B01A4B1B681A6852B3DB681E6886
:104BA000DC68251D2846FEF70BFE636A2046984701
:104BB000E369012BEED1A36933449E4207D26360BF
:104BC000246129460E4B1868FEF7E1FDE2E700215B
:104BD00000910B4632462046FFF7A4FF0028D9D1AA
:104BE0004FF0100383F31188BFF36F8FBFF34F8F24
:104BF000FEE7044A106802490860136002B070BD05
:104C0000080700200C07002038B50546FFF77AFB9F
:104C10000446074B1B68834205D800232B60044BD6
:104C20001C60204638BDFFF7B3FF01232B60F6E779
:104C30003807002070B582B006460D461449096851
:104C4000C968CC68201DFEF7BBFDE169012904D0CD
:104C5000636A2046984702B070BDA16933462A4670
:104C600031442046FFF7E4FE0028F1D000210091F6
:104C70000B4632462046FFF755FF0028E8D14FF09B
:104C8000100383F31188BFF36F8FBFF34F8FFEE7DD
:104C90000807002070B582B006460C46FFF72AFBD5
:104CA00001A8FFF7B1FF019B2BBB05460CB9B04231
:104CB0001AD22CB1124B1B681C68B4FA84F4640934
:104CC0002246711B0F4B1868FFF78EF8FFF7ACFBFD
:104CD00098B94FF0E0234FF08052C3F8042DBFF392
:104CE0004F8FBFF36F8F08E0FFF79EFB29463046DA
:104CF000FFF7A0FF01E0FFF797FB02B070BD00BF18
:104D00000C0700203C07002010B588B002E0049B8F
:104D1000002B0FDA002204A9364B1868FEF7A1FF1A
:104D2000002865D0049B002BF1DA07990698059BB3
:104D30009847ECE7069C636913B1201DFEF740FD20
:104D400003A8FFF761FF049B092BE3D801A252F8E7
:104D500023F000BF7D4D00087D4D00087D4D00080B
:104D6000154D0008C34D0008E94D00087D4D0008B1
:104D70007D4D0008154D0008C34D0008059BA16935
:104D8000024619442046FFF753FE0028C2D0636A4A
:104D900020469847E369012BBCD1A269002100910C
:104DA0000B46059802442046FFF7BCFE0028B1D10F
:104DB0004FF0100383F31188BFF36F8FBFF34F8F52
:104DC000FEE70599A16131B1034602460144204640
:104DD000FFF72EFE9EE74FF0100383F31188BFF319
:104DE0006F8FBFF34F8FFEE7204600F035F991E754
:104DF00008B010BD3C07002000B583B001A8FFF744
:104E000007FE0199FFF746FFFFF77EFFF6E7000078
:104E100010B584B014461A466FF001030093019058
:104E2000029103940023694602480068FEF7B3FE2E
:104E300004B010BD3C070020842801D00330704727
:104E40000020704708B5FFF713FA002008BDF0B541
:104E500085B00C46456806680769B0F90800FFF799
:104E6000EBFF03AB019300902346BAB231462846CC
:104E7000FFF75CF9012802D1039805B0F0BD0020CE
:104E8000FBE708B500B90120FFF79CFB002008BD37
:104E900008B501B90121FFF743FB002008BD000060
:104EA000134A12F0070F1FD0D11D21F00701C1F5E1
:104EB000AF53043313440A460E4802600021416098
:104EC0001344083B23F007030B4803605960196043
:104ED000991A51601360094B1960094B1960094B0D
:104EE0004FF000421A60704741F2E453E4E700BF1C
:104EF00048070020381D002044070020341D0020F2
:104F0000301D00202C1D0020154B1A461B688342C3
:104F1000FBD3516802EB010C844509D0416800EBDA
:104F2000010C634509D00360904218D010607047AF
:104F30004068014451601046F0E710B4094C246801
:104F4000A3420AD05B681944416013681B68036080
:104F5000904200D0106010BC70470460F8E77047C2
:104F6000381D00204407002070B50546FFF7C2F940
:104F7000344B1B68A3B1344B1B681D424AD135B179
:104F8000083515F0070F02D025F007050835002D6C
:104F900042D02E4B1B68AB424DD32D4A146804E01F
:104FA000FFF77EFFE7E722461C466368AB4202D26A
:104FB0002368002BF7D1234B1B68A3423DD0166812
:104FC00008362368136063685B1B102B10D96019C7
:104FD00010F0070F08D04FF0100383F31188BFF3D0
:104FE0006F8FBFF34F8FFEE743606560FFF78CFF65
:104FF000626816490B689B1A0B60164909688B4258
:1050000001D214490B60104B1B68134363600023EB
:10501000236002E0002600E00026FFF705FA16F004
:10502000070F0CD04FF0100383F31188BFF36F8F7D
:10503000BFF34F8FFEE70026EFE70026EDE730468F
:1050400070BD00BF440700202C1D0020301D002033
:10505000381D0020341D002080B338B50446A0F16F
:10506000080550F8043C164A1268134208D14FF064
:10507000100383F31188BFF36F8FBFF34F8FFEE7E9
:1050800050F8081C41B14FF0100383F31188BFF3AF
:105090006F8FBFF34F8FFEE723EA020340F8043C13
:1050A000FFF728F954F8041C064A13680B441360F0
:1050B0002846FFF729FFFFF7B7F938BD704700BF53
:1050C0002C1D0020301D002082B0002301930D4BC9
:1050D0001B68B3F1FF3F08D04FF0100383F3118832
:1050E000BFF36F8FBFF34F8FFEE74FF0100383F3D3
:1050F0001188BFF36F8FBFF34F8F019B002BFCD044
:1051000002B070470C00002006480068006880F379
:10511000088862B661B6BFF34F8FBFF36F8F00DFB1
:1051200000BF000008ED00E04FF0807340F8043C41
:1051300021F0010140F8081C034B40F80C3C40F8FA
:10514000202C4038704700BFC95000080000000004
:10515000074B19680868B0E8F00F80F30988BFF3BF
:105160006F8F4FF0000080F311884EF00D0E7047E6
:10517000DC0500204FF0100383F31188BFF36F8F1D
:10518000BFF34F8F0B4A136801331360012B00D01C
:1051900070474FF0E023D3F8043D13F0FF0FF7D032
:1051A0004FF0100383F31188BFF36F8FBFF34F8F5E
:1051B000FEE700BF0C000020094B1B6843B94FF00D
:1051C000100383F31188BFF36F8FBFF34F8FFEE798
:1051D000013B034A13600BB983F31188704700BF8A
:1051E0000C00002000000000000000000000000093
:1051F000EFF30980BFF36F8F0D4B1A6820E9F00FB2
:1052000010602DE908404FF0100080F31188FFF77F
:10521000FFF94FF0000080F31188BDE808401968DD
:105220000868B0E8F00F80F30988BFF36F8F70470C
:10523000DC05002008B54FF0100383F31188BFF39D
:105240006F8FBFF34F8FFFF763F828B14FF0E02364
:105250004FF08052C3F8042D002383F3118808BD5A
:105260004FF0E022002313619361054B1B68054951
:10527000A1FB03139B09013B536107231361704793
:1052800008000020D34D621010B582B02A4B1A7866
:10529000D2B20192FF221A701B78DBB28DF8033074
:1052A0009DF8033003F01003244A1370244B0722A7
:1052B0001A6009E0224A1368013B13609DF803302D
:1052C0005B00DBB28DF803309DF8033013F0800FE4
:1052D000F0D11B4B1B68032B08D04FF0100383F356
:1052E0001188BFF36F8FBFF34F8FFEE71B02144A85
:1052F000136003F4E0631360019BDBB20E4A13708A
:105300004FF0E023D3F8202D42F47002C3F8202D93
:10531000D3F8202D42F07042C3F8202DFFF7A0FFF4
:105320000024084B1C60FFF7EFFEFFF771F9FFF751
:10533000CBFE204602B010BD00E400E0401D00207E
:10534000441D00200C000020EFF305830F2B0FD924
:10535000114A9B5CDBB2114A12789A4208D94FF08D
:10536000100383F31188BFF36F8FBFF34F8FFEE7F6
:105370004FF0E023D3F80C3D03F4E063084A1268D1
:10538000934208D94FF0100383F31188BFF36F8F56
:10539000BFF34F8FFEE77047F0E300E0401D0020B1
:1053A000441D00200C480D490D4A002302E0D4584A
:1053B000C4500433C4188C42F9D30A4A0A4C00235F
:1053C00001E013600432A242FBD3FEF7DDF800F0E7
:1053D0000FF8FBF741FA704700000020740000202E
:1053E000C0650008740000205C1D0020FEE700007E
:1053F00070B500260C4D0D4C641BA410A64209D1BB
:1054000001F002F800260A4D0A4C641BA410A642C3
:1054100005D170BD55F8043B98470136EEE755F8C5
:10542000043B98470136F2E7B8650008B865000804
:10543000B8650008BC6500080A44914200F1FF33DA
:1054400000D1704710B511F8014B914203F8014F9C
:10545000F9D110BD03460244934200D1704703F8CE
:10546000011BF9E70FB40A4B13B51C6824B1A369FB
:1054700013B9204600F066F805AB2046049AA168EF
:10548000019300F0BBF902B0BDE8104004B07047D2
:1054900010000020002310B50446C0E90033C0E925
:1054A0000433836081814366C28183611946082287
:1054B0005C30FFF7CFFF054B24626362044BA362AD
:1054C000044BE362044B236310BD00BFA95D0008D9
:1054D000CB5D0008035E0008275E0008014900F06C
:1054E000AFB800BFF9600008682270B54D1E554383
:1054F0000E4605F1740100F0E5F8044640B10021C4
:10550000C0E900160C30A06005F16802FFF7A2FFA9
:10551000204670BD014800F0B3B800BF491D00200F
:10552000014800F0AEB800BF491D0020014800F05E
:10553000A7B800BF4A1D0020014800F0A2B800BF74
:105540004A1D002010B50446FFF7F0FFA3691BB108
:10555000BDE81040FFF7F0BFC4E912332365134BD9
:10556000134A1B68A262A34208BF0123204608BF5A
:10557000A36100F01FF86060204600F01BF8A060F7
:10558000204600F017F800220421E0606068FFF771
:1055900081FF01220921A068FFF77CFF022212216E
:1055A000E068FFF777FF0123A361D1E720650008DA
:1055B000DD540008F8B50746FFF7ACFF1E4B1E6828
:1055C000B36913B93046FFF7BDFF4836D6E9013459
:1055D000013B03D533680BB33668F7E7B4F90C50D9
:1055E000D5B9164B04F15800E360656600F047F842
:1055F000FFF796FF08222946C4E90155C4E904557E
:105600002560A56104F15C00FFF724FFC4E90D5596
:10561000C4E912552046F8BD6834D9E7042138465C
:10562000FFF762FF044630600028D5D1FFF778FF0E
:105630000C233B60EEE700BF206500080100FFFF80
:105640002DE9F84306468846002700F14804D4E9CE
:105650000195B9F1010905D52468002CF7D1384628
:10566000BDE8F883AB89012B07D9B5F90E300133BA
:1056700003D029463046C04707436835E9E77047FD
:105680007047704770B50E4E0C463168054611B92B
:1056900000F07AFB30602146284600F075FB431C81
:1056A0000AD0C41C24F00304A04207D0211A2846C3
:1056B00000F06AFB013001D14FF0FF34204670BD8D
:1056C000501D00202DE9F041CD1C25F003050835C3
:1056D0000C2D38BF0C25002D074601DBA94205D94A
:1056E0000C2300263B603046BDE8F0812E4E00F0D2
:1056F000C5FD33681C4634BB29463846FFF7C2FF58
:10570000431C04464DD134682646002E40D1236800
:105710003146384604EB030800F036FB80453AD1A9
:10572000216803356D1A25F0030508350C2D38BFA7
:105730000C2538462946FFF7A5FF01302BD02368FA
:105740002B4423600EE02268521B1ED40B2A16D96C
:105750006119A342256018BF5960636808BF3160B2
:1057600062514B60384604F10B0600F08DFD26F0C7
:105770000706231DF21AB6D09B1BA350B3E762683D
:10578000A3420CBF32605A60ECE723466468B2E77C
:1057900034467668B9E70C2338463B6000F074FD68
:1057A000A1E72560DEE700BF4C1D0020936810B420
:1057B000013B002B936007DA9469A34201DB0A29BD
:1057C00002D110BC00F034BB1368581C1060197073
:1057D000084610BC7047F8B506460F461446D51863
:1057E000AC4201D1002007E03A46304614F8011BD4
:1057F000FFF7DCFF431CF3D1F8BD00002DE9F04FAB
:105800000D461446984606469DB018B183690BB9FB
:10581000FFF798FE894B9D421BD175686B6ED907C7
:1058200005D4AB899A0502D4A86DFFF729FFAB898F
:105830001B0701D52B69EBB92946304600F05CFB0C
:10584000C0B16B6EDC070ED54FF0FF301DB0BDE868
:10585000F08F7B4B9D4201D1B568DFE7794B9D42CC
:1058600008BFF568DAE7AB899805EDD4A86DFFF7B6
:1058700008FFE9E70023099320238DF8293030231E
:105880004FF00109CDF80C80DFF8BC818DF82A308B
:1058900023469A4613F8012B0AB1252AF9D1BAEB0F
:1058A000040B0BD05B46224629463046FFF793FF98
:1058B000013000F0AA80099A5A4409929AF80030FF
:1058C000002B00F0A28000234FF0FF32CDE905232A
:1058D0000AF1010A049307938DF853301A93544642
:1058E000052214F8011B584800F0BAFC049AD8B9F4
:1058F000D10644BF20238DF85330130744BF2B2318
:105900008DF853309AF800302A2B15D054460020D9
:105910004FF00A0C079A214611F8013B303B092B46
:105920004ED9B0B1079214E0A0EB080309FA03F3D3
:105930001343A2460493D2E7039B191D1B680391EE
:10594000002BBBBF5B4242F0020207930793B8BF34
:10595000049223782E2B0CD163782A2B35D1039B0C
:1059600002341A1D1B680392002BB8BF4FF0FF339F
:105970000593DFF8D8A003225046217800F070FC90
:1059800040B14023A0EB0A0003FA00F0049B01346D
:105990000343049314F8011B06222D488DF82810A8
:1059A00000F05EFC00283FD02A4B1BBB039B073353
:1059B00023F0070308330393099B3B44099367E7EC
:1059C0000C4601200CFB0232A5E700234FF00A0C25
:1059D000194601340593204610F8012B303A092A64
:1059E00003D9002BC5D00591C3E7044601230CFB66
:1059F0000121F0E703AB00932A463046164B04A979
:105A0000AFF300800746781CD6D16B6ED90705D45A
:105A1000AB899A0502D4A86DFFF733FEAB895B060C
:105A20003FF512AF099811E703AB00932A463046C1
:105A3000094B04A900F082F8E4E700BF44650008C0
:105A40006465000824650008846500088A6500080C
:105A50008E65000800000000D75700082DE9F047C8
:105A6000164699468A680B6907469342B8BF1346A3
:105A7000336091F843200C46DDF820800AB10133F1
:105A800033602368990642BF336802333360256868
:105A900015F0060506D104F1190AE36832689B1A6D
:105AA000AB4228DC94F84320131E226818BF012360
:105AB00092062DD44946384604F14302C0470130CE
:105AC00020D02368E56803F00603042B18BF0025E7
:105AD00032684FF00006A36808BFAD1A226908BFFC
